:100000002BC03AC06EC238C07BC236C035C034C0C7
:1000100033C032C031C01BC22FC02EC02DC02CC077
:100020002BC000003A00370000003B003800000001
:100030000000000403020100000000003900360047
:100040000101010101010101020202020102040891
:10005000102040800402010811241FBECFE5D2E029
:10006000DEBFCDBF20E0A0E6B0E001C01D92AB37FF
:10007000B207E1F768D2BCC3C3CF3FB7F894809111
:10008000770090917800A0917900B0917A0022B722
:1000900008B600FE05C02F3F19F00196A11DB11D45
:1000A0003FBFBA2FA92F982F8827BC01CD01620F1F
:1000B000711D811D911D43E0660F771F881F991FD9
:1000C0004A95D1F70895CF92DF92EF92FF92CF93A6
:1000D000DF936B017C01D1DFEB01C114D104E1049A
:1000E000F10441F412C081E0C81AD108E108F10816
:1000F000C851DC4FC2DF6C1B7D0B683E734068F358
:10010000C114D104E104F10471F7DF91CF91FF90A4
:10011000EF90DF90CF9008952FB7F894609173001F
:100120007091740080917500909176002FBF0895B2
:100130008823A9F0A89588E181BD81E681BD85B7B6
:10014000877E806185BF10926400F89485B78062D5
:1001500085BF7894889585B78F7D85BF0895A895CC
:1001600088E181BD11BCEBCF90E0FC01E45BFF4F67
:100170002491FC01E05CFF4FE491EE2371F0F0E08C
:10018000EE0FFF1FE65CFF4FA591B491EC91E223C7
:1001900081E090E021F480E0089580E090E008950F
:1001A000CF92DF92EF92FF92CF9383E0DDDF019752
:1001B00041F0C0E08C2FCF91FF90EF90DF90CF9077
:1001C0000895AADF6B017C0183E0CEDF019781F403
:1001D000A3DF6C197D098E099F0968387341810579
:1001E000910530F465E070E080E090E06CDFECCFEA
:1001F00093DFDC01CB018C199D09AE09BF098C335B
:100200009105A105B105A8F2C1E0803D9740A10587
:10021000B10508F0C2E080DFC0906000D0906100BE
:10022000E0906200F09063006C197D098E099F09CF
:10023000683E73408105910508F4C3E06DDF60936B
:100240006000709361008093620090936300B2CF6E
:10025000CF93C2E080E088DF019749F464E170E069
:1002600080E090E030DFC13061F0C1E0F3CF81E0A9
:100270007BDF019799F382E077DF019779F320E044
:100280000FC081E071DF22E0019751F082E06CDF66
:1002900023E0019729F080E067DF21E0019779F7FB
:1002A000822FCF91089590E0FC01E25DFF4F3491E1
:1002B000FC01E45BFF4F2491FC01E05CFF4FE49103
:1002C000EE23B9F0332329F03130A1F480B78F77D2
:1002D00080BFF0E0EE0FFF1FE85DFF4FA591B491E6
:1002E0008FB7611117C0F894EC9120952E232C93B1
:1002F0008FBF0895323019F480B78F7DE9CF333046
:1003000021F48FB58F778FBDE4CF343011F78FB5DF
:100310008F7DF9CFF894EC912E2BE9CFCF93DF931B
:10032000EC0161E087E0BFDFBE0190E080E0CBDE62
:1003300060E087E0DF91CF91B6CFCF93C82F682FD1
:10034000617084E0B0DFC1FB662760F985E0CF9182
:10035000AACFCF93C82F80937100DEDE60936D002B
:1003600070936E0080936F009093700010926900FC
:1003700010926A0010926B0010926C008FEF8C0F3D
:1003800061E0833008F060E086E08DDF61E0C2303C
:1003900009F060E087E087DFC11106C080E0CDDFB3
:1003A00060E089E0CF917FCFCF9108958823E9F075
:1003B000833031F44DDF811101C0CBCF85E0FDCF1B
:1003C000823071F080E498E3A0E0B0E080936500B3
:1003D00090936600A0936700B093680084E0EDCF2F
:1003E00080E891E5A1E0B0E0F1CF0895CF93DF93ED
:1003F00090E0FC01E45BFF4F2491805C9F4FFC0187
:1004000084918823D1F090E0880F991FFC01EE5D64
:10041000FF4FA591B491FC01E85DFF4FC591D491C8
:1004200061110EC09FB7F8948C91E22FE0958E2356
:100430008C932881E223E8839FBFDF91CF910895B9
:100440008FB7F894EC91E22BEC938FBFF6CF1F920D
:100450000F920FB60F9211242F933F938F939F9378
:10046000AF93BF938091730090917400A091750039
:10047000B09176003091720026E0230F2D3768F19D
:1004800029E8230F0396A11DB11D209372008093CC
:10049000730090937400A0937500B09376008091E0
:1004A000770090917800A0917900B0917A00019640
:1004B000A11DB11D8093770090937800A0937900DF
:1004C000B0937A00BF91AF919F918F913F912F91FF
:1004D0000F900FBE0F901F9018950296A11DB11D91
:1004E000D4CF1F920F920FB60F9211248F9381E0F9
:1004F000809364008F910F900FBE0F901F901895FE
:100500001F920F920FB60F9211242F933F934F9388
:100510005F936F937F938F939F93AF93BF93EF936B
:10052000FF93DFDFFF91EF91BF91AF919F918F918B
:100530007F916F915F914F913F912F910F900FBEDF
:100540000F901F90189583E080BF92E093BF78943E
:1005500089B7816089BF81E08FBD9EBD83E886B980
:1005600060E080E043DF60E081E040DF60E082E067
:100570003DDF60E083E03ADF60E088E037DF61E0A4
:1005800084E034DF61E085E031DF61E086E02EDF8A
:1005900061E087E02BDF61E08AE028DF61E089E04D
:1005A00025DF60E087E07FDE60E08AE07CDE379870
:1005B0008BB780618BBF8FE082BB8EE190E0AEDEB7
:1005C00047DE882311F085E001C080E0C2DEA4DDB3
:1005D0006B017C0180917100823009F4A2C098F413
:1005E000882309F441C0813091F7DADDDFDE8091A4
:1005F0007100813061F72CDE9EEF980F923008F089
:1006000055C09BDE49C0843009F4C7C008F4A6C0B9
:100610008530E9F6C5DD8111C3C01ADE811108C03D
:1006200068E873E180E090E04EDD12DE882371F22D
:1006300061E089E038DE6AE070E080E090E043DD70
:1006400060E089E030DE66E970E080E090E03BDD6C
:1006500061E089E028DE6AE070E080E090E033DD70
:1006600060E089E020DEC2C0F3DDC82F8823B1F04E
:1006700064DE88E079DD019759F061E08AE013DEFD
:100680006CE271E080E090E01EDD60E08AE00BDE6D
:1006900081E0C13009F49ACF82E098CF81DD86DE17
:1006A00080917100811193CF43DD91CF80916D00D6
:1006B00090916E00A0916F00B0917000A70196011B
:1006C000281B390B4A0B5B0BDA01C90180369A4EA5
:1006D000A105B10508F78091690090916A00A09189
:1006E0006B00B0916C00A7019601281B390B4A0BD7
:1006F0005B0BDA01C901883B9B40A105B10558F0AD
:1007000082E390E00BDEC0926900D0926A00E09232
:100710006B00F0926C0064E170E080E090E0D3DC6C
:1007200056CF3EDD43DE80917100823009F04FCF1D
:1007300080916D0090916E00A0916F00B09170005B
:10074000C81AD90AEA0AFB0A40E8C4164FE4D406DC
:1007500042E1E406F104F8F283E038CF21DD26DE41
:1007600080917100833009F032CF809169009091BF
:100770006A00A0916B00B0916C00A7019601281B44
:10078000390B4A0B5B0BDA01C90188389341A1058B
:10079000B10508F280E590E0B5CF02DD882311F0C5
:1007A00005DE15CF61E089E07EDD6AE070E080E083
:1007B00090E089DC60E089E076DD809165009091D1
:1007C0006600A0916700B091680089309105A1058D
:1007D000B10508F4F5CE0897A109B1098093650029
:1007E00090936600A0936700B093680081E05CCFAF
:0407F000F894FFCFAB
:00000001FF
